:020000040800F2
:10000000D011002071030008CF1500081715000853
:10001000CD15000801040008BD180008000000000C
:10002000000000000000000000000000B102000815
:1000300003040008000000000D0300080D1600086E
:100040008B0300088B0300088B0300088B03000858
:100050008B0300088B0300088B0300088B03000848
:100060008B0300088B0300088B0300088B03000838
:100070008B0300088B0300088B0300088B03000828
:100080008B0300088B0300088B0300088B03000818
:100090008B0300088B0300088B0300088B03000808
:1000A0008B0300088B0300088B0300088B030008F8
:1000B0008B0300088B0300088B0300088B030008E8
:1000C0008B0300088B0300088B0300088B030008D8
:1000D0008B0300088B0300088B0300088B030008C8
:1000E0008B0300088B030008000000008B0300084E
:1000F0008B0300088B0300088B0300088B030008A8
:100100008B0300088B0300088B0300088B03000897
:100110008B0300088B0300088B030008E11700081D
:100120008B0300088B0300088B0300088B03000877
:100130008B0300088B0300088B0300088B03000867
:1001400000000000000000000000000000000000AF
:100150008B0300088B0300088B0300088B03000847
:100160008B0300088B0300088B0300088B03000837
:100170008B0300088B0300088B03000800000000BD
:100180008B0300088B0300088B0300088B03000817
:100190008B0300088B0300088B0300088B03000807
:1001A0008B0300088B0300088B0300088B030008F7
:1001B0008B0300088B0300088B0300088B030008E7
:1001C0008B0300088B0300088B0300088B030008D7
:1001D0008B0300088B0300088B0300088B030008C7
:1001E0008B0300088B0300088B0300088B030008B7
:1001F0008B0300088B0300088B0300088B030008A7
:100200008B0300088B0300088B0300088B03000896
:100210008B0300088B0300088B0300088B03000886
:100220008B0300088B0300088B030008000000000C
:100230008B0300088B030008000000008B030008FC
:100240008B0300088B0300088B0300088B03000856
:100250008B0300088B0300088B0300088B03000846
:100260008B0300088B0300088B0300088B03000836
:100270008B0300088B0300088B03000800000000BC
:100280008B0300088B0300088B03000800000000AC
:10029000000000008B030008DFF810D000F09EF88B
:1002A0000048004705190008AFF30080D011002076
:1002B0002C4B19680868B0E8F04F80F30988BFF349
:1002C0006F8F4FF0000080F311887047000000002E
:1002D00008480068006880F308884FF0000080F349
:1002E000148862B661B6BFF34F8FBFF36F8F00DF24
:1002F00000BF00BF08ED00E0DFF80C00016841F42A
:1003000070010160704700BF88ED00E0EFF30980E5
:10031000BFF36F8F134B1A681EF0100F08BF20ED4C
:10032000108A20E9F04F106009B44FF0500080F3BC
:100330001188BFF34F8FBFF36F8F02F0D9F94FF0E1
:10034000000080F3118809BC19680868B0E8F04F14
:100350001EF0100F08BFB0EC108A80F30988BFF3BD
:100360006F8F704720000020EFF30580704700007A
:100370000648804706480047FEE7FEE7FEE7FEE73F
:10038000FEE7FEE7FEE7FEE7FEE7FEE705170008EB
:100390009902000840EA01039B0703D009E008C95D
:1003A000121F08C0042AFAD203E011F8013B00F83A
:1003B000013B521EF9D27047D2B201E000F8012B86
:1003C000491EFBD270470022F6E710B513460A46D5
:1003D00004461946FFF7F0FF204610BD064C074DB6
:1003E00006E0E06840F0010394E807009847103405
:1003F000AC42F6D3FFF754FF103200084032000839
:10040000FEE770472DE9F84F03247D4D00234FF0A0
:1004100001094FF0B04B4FF00F0AE9E009FA03F77A
:100420003A4076D00E7906F00306012E01D0022E56
:1004300018D1D0F808C04FEA430ECE6804FA0EF87F
:100440002CEA080C06FA0EF646EA0C068660D0F88E
:1004500004C00E792CEA070CC6F300169E4046EA4B
:100460000C0646600E79F643B6070BD0C6684FEA15
:1004700043088F6804FA08FC26EA0C0607FA08F716
:100480003743C7600E7906F00306022E12D1DE084C
:100490000F694FEA437C00EB8606B646366A4FEAA0
:1004A000DC6C0AFA0CF807FA0CF726EA0806374360
:1004B000CEF820700F7906684FEA430807F003076B
:1004C00004FA08FC07FA08F726EA0C063743076027
:1004D0004E6816F4403F1CD04A4E376847F002077A
:1004E000376036689F0706F00206009623F0030681
:1004F00006F1B046B6463F0FD6F80864DFF808812B
:100500000AFA07FC404526EA0C0603D14FF0000C1E
:1005100041E06CE0DFF8F4C0604502D14FF0010C1F
:1005200039E0DFF8ECC0604502D14FF0020C32E058
:10053000DFF8E0C0604502D14FF0030C2BE0DFF89C
:10054000D8C0604502D14FF0040C24E0DFF8CCC0E5
:10055000604502D14FF0050C1DE0DFF8C4C06045D6
:1005600002D14FF0060C16E0DFF8B8C0604502D1AA
:100570004FF0070C0FE0DFF8B0C0604502D14FF03C
:10058000080C08E0DFF8A4C0604502D14FF0090C68
:1005900001E04FF00A0C0CFA07FC4CEA060CCEF80E
:1005A00008C44F68DBF80060FF0226EA020600D5A7
:1005B00016435F46CBF80060D1F804C0DBF8046056
:1005C0005FEA8C2C26EA020600D516437E606E6830
:1005D0004F6826EA0206BF0300D516436E602E68F8
:1005E0004F6826EA0206FF0300D516432E605B1C07
:1005F0000A6832FA03F67FF411AFBDE8F88F000005
:1006000080000058F44402580000025800040258C8
:1006100000080258000C025800100258001402583A
:1006200000180258001C02580020025800240258EA
:100630000AB1816170470904FBE7000001480068C6
:10064000000C70470010005C014880687047000093
:100650000C000020024881680278114481607047D4
:100660000C000020032010B500F0FEF800F0C8FADE
:100670000F4A104914681368C4F3032203F00F03F0
:100680008A5CC95C02F01F0201F01F01D0400A4AD7
:1006900020FA01F11160094908600F2000F010F8FC
:1006A00008B1012010BD00F09FF8002010BD00002F
:1006B00018440258E03100081C00002018000020F7
:1006C00010B5102804468AB02CD2002201463720EB
:1006D00000F0AAF8372000F099F81748046017488E
:1006E000016841F020010160006809A900F02000C4
:1006F0000890684600F022FA0598B0B100F06EFA52
:1007000040000F4900220F4CB0FBF1F10E4840F2BF
:10071000E7330460C0E90332491EC0E9011200F06A
:10072000CFFD28B101200AB010BD00F057FAE8E76C
:10073000054800F0F7FDF6E710000020E8440258F5
:1007400040420F0000140040A8000020154BF0B5F7
:10075000083B427813491A600B680A1F23F0010313
:100760000B6043681360057BC67A827A437B2D0752
:10077000847B45EA0665C77B90F809C0067A90F845
:1007800000E045EAC24040EA834040EA444040EA93
:10079000074040EA0C2040EA460040EA0E000860AC
:1007A000F0BD0000A0ED00E0BFF35F8F0448002122
:1007B0000368034A23F4803303607032116070478A
:1007C00024ED00E0074A40F0010006497032106055
:1007D000086840F480300860BFF34F8FBFF36F8F1D
:1007E0007047000024ED00E0074882B0016841F046
:1007F00002010160006800220F2100F00200009059
:10080000901E02B000F010B8F4440258002809DB32
:10081000410900F01F028900012001F1E021904010
:10082000C1F80001704700000E4BF0B41B680D4684
:10083000C3F30223C3F10706042E00D90426191DB1
:10084000072901D2002300E0DB1E012404FA06F18F
:100850009C40491E2940641E994014402143F0BC2D
:1008600001F02DB80CED00E0064900F0070210B5CC
:100870004FF6FF040868044B204040EA022018436A
:10088000086010BD0CED00E00000FA05134970B5DA
:100890000A68D243520705D5096801F00701814271
:1008A00013D118E00A6822F0070202430A60FFF73A
:1008B000CBFE0A4D4FF47A760446083D07E000BFB0
:1008C000FFF7C2FE001BB04201D9012070BD2868AD
:1008D000C0438004F4D4002070BD00000C480258CE
:1008E0002DE9F05F04000F467ED0DFF83882D8F89B
:1008F000000000F00F00B8420CD2D8F8001021F030
:100900000F013943C8F80010D8F8000000F00F00BC
:10091000B84269D12078844D40070AD520692968FA
:1009200001F07001884204D9296821F07001014367
:10093000296020787C4E361D00070AD56069316831
:1009400001F07001884204D9316821F0700101433F
:1009500031602078C0060AD5A069316801F4E061F1
:10096000884204D9316821F4E06101433160207884
:10097000DFF8B4B180060BF1080B0CD5E1695846DD
:10098000DBF8002002F07002914204D9026822F0E4
:1009900070020A430260207880070AD5E06829685F
:1009A00001F00F01884204D9296821F00F010143A9
:1009B00029602078C0073ED05B49A26828681839B2
:1009C00020F47060104328606068022818D0032863
:1009D00019D00968012819D0490700294ADADFF837
:1009E00048A1AAF1080A00E044E0DAF8002022F069
:1009F00007020243CAF80020FFF726FE814612E0F4
:100A000009688903E9E709688901E6E7C905E4E7B8
:100A1000FFF71AFEA0EB090141F28830814202D9AA
:100A20000320BDE8F09F6168DAF8000000F03800AC
:100A3000B0EBC10FECD1207880070AD5E0682968B7
:100A400001F00F01884204D2296821F00F0101430F
:100A50002960D8F80010404601F00F01B9420BD9C7
:100A6000016821F00F0139430160006800F00F00B8
:100A7000B84201D00120D4E7207840070AD5206988
:100A8000296801F07001884204D2296821F07001C0
:100A900001432960207800070AD56069316801F0B8
:100AA0007001884204D2316821F070010143316045
:100AB0002078C0060AD5A069316801F4E061884257
:100AC00004D2316821F4E06101433160207880066E
:100AD0000CD5E1695846DBF8002002F07002914223
:100AE00004D2026822F070020A43026000F088F823
:100AF0000E492A682B68C2F3032203F00F038A5CB5
:100B0000C95C02F01F0201F01F01D040084A20FA20
:100B100001F111600749086007480068BDE8F05F0F
:100B2000FFF7CEBD0020005218440258E031000803
:100B30001C000020180000201000002070B5144C8C
:100B40003F220260124A24680832131D114D04F03E
:100B50000704446016681C1D06F4706686601668FB
:100B600006F00F06C660126802F0700202611A6891
:100B700002F0700242611A6802F4E0628261226847
:100B800002F07002C261286800F00F00086070BDBA
:100B9000104402580020005230B500F031F80B4AE2
:100BA0000B490C4B15681468C5F3032204F00F04BD
:100BB0008A5C095D02F01F0201F01F01D040064A65
:100BC00020FA01F119601060084630BD184402583F
:100BD000E03100081C0000201800002000B5FFF7DD
:100BE000DBFF05490968054AC1F30211515C01F0B8
:100BF0001F01C84000BD00001C440258E03100083D
:100C0000454970B545480968434B103B11F038021F
:100C100008D00111082A03D0102A0BD0182A0BD0B3
:100C2000084670BD19688906FBD51968C1F3C10172
:100C3000C84070BD3A4870BD3749374D18310C1D5A
:100C400024350A68096826682D6802F0030406F056
:100C50000102C1F30511C5F3CC0515FB02F200EE4C
:100C6000102AB8EE400AE9B32F4ADFED2E0AB7EE9C
:100C7000001A6CB1DFED2D1A012C01D0022C43D0EB
:100C800002EE101A1068F8EE422A81EEA22A1EE047
:100C90001C68A40611D51B6801EE901A1168C3F3F5
:100CA000C103F8EE612AD84001EE900AC1F30800B2
:100CB000F8EE611A81EEA22A0BE001EE901ADFED48
:100CC0001C2A00BFF8EE611A106882EEA12AC0F358
:100CD000080001EE900AF8EE611A40EE201A31EE9B
:100CE000810A00E015E022EE000A1068C0F34620F9
:100CF000401C00EE900AF8EE600A80EE201ABCEE6E
:100D0000C10A10EE100A70BD01EE901ADFED092A3B
:100D1000D8E7002070BD0000104402580090D003B6
:100D200040787D0100000039304402580024744AA4
:100D30000024744C20BCBE4B2DE9F05F04007DD034
:100D4000FF4F2078FE4D1837DFF8F493103DC007B1
:100D500048D0D9F80000396800F03800102815D0C4
:100D6000182803D101F0030002280FD06068B0F505
:100D7000803F12D010B1B0F5A02F18D0286820F411
:100D800080302860286820F4802009E028688003EB
:100D900028D560680028D2D024E0286840F480304C
:100DA0002860606888B1FFF74FFC064609E02868B4
:100DB00040F480202860F0E7FFF746FC801B6428A1
:100DC0006FD828688003F7D50CE0FFF73DFC064696
:100DD00005E000BFFFF738FC801B6428F0D82868C6
:100DE0008003F7D4207841F20308D54E0C3E8007EB
:100DF00069D5D9F80000396810F038000ED01828ED
:100E000001D188070AD0E06890B3296821F0190160
:100E100001432960FFF718FC824631E0286840074B
:100E200002D5E06800288AD0E168286820F019001F
:100E300008432860FFF708FC824607E0DFE000BFB8
:100E4000FFF702FCA0EB0A000228B9D82868400787
:100E5000F6D500BFFFF7F2FB40451BD820694028BC
:100E600012D0316821F47C3141EA003030602AE050
:100E700018E000BFFFF7E8FBA0EB0A0002289FD8AC
:100E800028684007F6D5E5E7306820F47C3040F468
:100E90000030EBE7207C316821F0FE4141EA006040
:100EA000E4E70DE1286820F001002860FFF7CCFBA3
:100EB000824605E0FFF7C8FBA0EB0A0002288DD8A8
:100EC00028684007F6D42078C0065DD5D9F8000020
:100ED000DFF86CB2396800F03800ABF1040B082879
:100EE00010D0182803D101F0030001280AD0E069CE
:100EF0000028286838D040F080002860FFF7A4FB65
:100F0000824623E02868C00523D5E069802876D191
:100F10001FE0206A202821D0316821F0F84141EA01
:100F20008060306030E000BF94F82010DBF80020D3
:100F300022F07C5242EA0161CBF8001024E000BFAD
:100F4000FFF782FBA0EB0A00022898D82868C005AA
:100F5000F6D5FFF773FB4045E6D8DAE7306820F0B6
:100F6000F84040F08040DCE720F080002860FFF788
:100F70006BFB064605E000BFFFF766FB801B0228FF
:100F80009DD82868C005F7D42078000729D56C487B
:100F90006169643000298046016811D041F0010187
:100FA0000160FFF751FB064605E000BFFFF74CFB71
:100FB000801B0228C9D8D8F800008007F6D510E0B9
:100FC00021F001010160FFF73FFB064605E000BF8D
:100FD000FFF73AFB801B022872D8D8F80000800780
:100FE000F6D42078800623D5A0690028286810D080
:100FF00040F480502860FFF727FB064605E036E105
:10100000FFF722FB801B02285AD828688004F7D5F6
:101010000EE020F480502860FFF716FB064604E03F
:10102000FFF712FB801B02284AD828688004F7D4F7
:10103000207840074FD5DFF80C81D8F8001041F434
:101040008071C8F80010FFF7FFFA064605E000BF00
:10105000FFF7FAFA801B642832D8D8F80000C005E0
:10106000F6D5374EA068603601280AD008B10528A9
:1010700013D0306820F001003060306820F00400A8
:1010800002E0306840F001003060A06841F2883A28
:1010900090B1FFF7D9FA80460AE0306840F00400CA
:1010A0003060EEE7FFF7D0FAA0EB0801514507D812
:1010B00030688007F6D50EE0FFF7C6FA804607E0F5
:1010C00084E000BFFFF7C0FAA0EB080151457DD8CE
:1010D00030688007F6D4606AB0B3DFF86480D9F86E
:1010E000001008F120084FF6F87B08F10409C1F35D
:1010F000C2010329A8F1040A69D00228286820F057
:101100008070286003D0FFF79FFA044684E0FFF761
:101110009BFA064605E000BFFFF796FA801B0228FF
:1011200077D828688001F7D4E26A40F2F331386852
:1011300054F8283F884340EA02101843386004E01E
:101140001044025800480258B5E0217B43462289EA
:101150004FF4FE0C208A4FF0FE474902267D521EB6
:10116000401EA1F50071C2F308088AB2761E0CEA8F
:10117000004042EA08020243504607EA06610A4379
:101180001A60DAF8002022F00102CAF80020D9F82B
:101190000020266A22EA0B0242EAC602C9F80020B1
:1011A000DAF80010A26921F00C011143CAF800100E
:1011B0000168E26921F0020111430160016841F414
:1011C00080310160016841F4003101E021E027E055
:1011D0000160016841F480210160016841F0010172
:1011E0000160286840F080702860FFF72DFA0446FF
:1011F00005E000BFFFF728FA001B022809D828687D
:101200008001F7D557E000BFFFF71EFA001B022848
:1012100002D90320BDE8F09F28688001F4D44AE099
:1012200039680128D8F8000021D0A26A01F0030330
:1012300093421CD1E26AC1F305118A4217D1216B96
:10124000C0F30802491E8A4211D1616BC0F34622E5
:10125000491E91420BD1A16BC0F30642491E914237
:1012600005D1E16BC0F30660491E814201D0012027
:10127000D0E7A16C4E46D9F80000C0F3CC00814203
:1012800019D0DAF80000554620F00100CAF8000035
:10129000FFF7DAF94FEA0007FFF7D6F9B842FBD0BB
:1012A000A26C306820EA0B0040EAC2003060286877
:1012B00040F0010028600020ACE77047704770479D
:1012C00010B5040003D094F83D0010B107E00120F0
:1012D00010BD002084F83C00204600F022F80220D7
:1012E00084F83D002068211D00F080FA012084F878
:1012F000480084F83E0084F83F0084F8400084F8F9
:10130000410084F8420084F8430084F8440084F8E3
:10131000450084F8460084F8470084F83D0000202A
:1013200010BD704790F83D10012901D00120704791
:10133000174A022180F83D100168CB6843F0010391
:10134000CB600068904214D0B0F1804F11D01149A9
:1013500088420ED0104988420BD01049884208D0EC
:101360000F49884205D00F49884202D00E49884271
:1013700007D181680D4A1140062906D0B1F5803F9A
:1013800003D0016841F001010160002070470000B6
:10139000000001400004004000080040000C004034
:1013A0000004014000180040004001400700010017
:1013B00070472DE9F041044600680027C6680569BA
:1013C000A90713D5B10711D5FA1E026101212177B2
:1013D000206880698007204602D0FFF7E9FF04E01B
:1013E00000F08BF8204600F089F82777680716D5BB
:1013F000700714D5226802206FF004011161207774
:101400002068806910F4407F204602D0FFF7D0FFAB
:1014100004E000F072F8204600F070F82777280703
:1014200015D5300713D5226804206FF0080111612B
:1014300020772068C0698007204602D0FFF7B8FFF8
:1014400004E000F05AF8204600F058F82777E80644
:1014500016D5F00614D5226808206FF0100111612E
:1014600020772068C06910F4407F204602D0FFF743
:101470009FFF04E000F041F8204600F03FF8277796
:10148000E80708D0F00706D021686FF00100086176
:10149000204600F035F8280601D4A80408D5300607
:1014A00006D521686FF4025008612046FFF706FF59
:1014B000E80508D5300606D521686FF4807008610C
:1014C0002046FFF7FAFE680608D5700606D52168A3
:1014D0006FF040000861204600F01CF8A8060AD50D
:1014E000B00608D521686FF0200008612046BDE8ED
:1014F000F041FFF7E4BEBDE8F0817047704700009F
:1015000000680349884201D1FFF7A4B87047000082
:10151000001400407047FEE70B4A00210B4810B54D
:1015200000F060FA0A4C0021074A24322060094882
:1015300000F058FA044A002160600748483200F081
:1015400051FAA06010BD000074310008D1150008E8
:1015500000000020D91500080516000830B587B036
:1015600014216846FEF72FFF1648016841F001017B
:101570000160016801F001010591016841F0040179
:101580000160016801F004010591016841F08001EA
:10159000016000684FF400540B4D002200F0800001
:1015A000214605902846FFF743F8002100940120CA
:1015B000CDE90101284603916946FEF723FF07B0F4
:1015C00030BD0000E044025800080258FEE7FEE784
:1015D000012000F0CAF9FBE7094C4FF40055012245
:1015E00029462046FFF724F8642000F0BEF90022C7
:1015F00029462046FFF71CF8642000F0B6F9EEE714
:1016000000080258012000F0B0F9FBE74FF0E0209D
:1016100010B5006901F0FAFB012803D0BDE81040C5
:1016200001F01EB910BD000070B59CB04C21684699
:10163000FEF7C9FE202113A8FEF7C5FE0220FFF722
:1016400025F92D4900242D480A6822F001020A607C
:101650000A68026842F440420260026802F44042B2
:101660001B9202689204FCD5254A136843F00203DA
:101670001360126802F002021B92026842F44042B8
:10168000026002680A6842F001020A60096801F01B
:1016900001011B9101688904FCD50DF1280C022081
:1016A00009900521C0228CE80700C3030F9008258C
:1016B0000D9001260E90CDE91054CDE900636846E7
:1016C0001294FFF739FB08B172B6FEE740201A907A
:1016D0003F210301CDE916500322CDE9180313ABD6
:1016E00013A883E816000421FFF7FAF8002801D0B8
:1016F00072B6FEE71CB070BD2C04005818480258A2
:10170000F44402582C48F0B52C4A016841F47001A9
:101710000160106800F00F00072804D2106820F064
:101720000F00C01D106026490020254C10340B68A6
:10173000244D43F001030B6020600B682B400B60CD
:10174000136803F00F03072B04D9136823F00F036A
:10175000DB1D13601A4C1C4A18341C4B261D371D08
:101760002060174C1A4D28343060261D3860371D14
:1017700023603B1D35601C1D3A60251D2E1D186021
:10178000331D22602860326018600A680C4B114CCF
:1017900022F4802260330A60186020686FF30F0023
:1017A000B0F1005F03D20C490120C1F8080143F2F7
:1017B000D2000A490860F0BD88ED00E00020005228
:1017C000004402587FEDF6EA8002010100020202A5
:1017D0000000FF010010005C00800051004000523A
:1017E0000148FFF7E6BD0000A80000202DE9F04702
:1017F0002A4B4FF0804A2A4D02689842294E2A4FC0
:101800002A4C09D0504507D0A84205D0B04203D099
:10181000B84201D0A04205D1D1F804C022F0700234
:101820004CEA0202DFF888C0DFF888809842DFF8CF
:1018300088900FD050450DD0A8420BD0B04209D0AF
:10184000B84207D0A04205D0604503D0404501D042
:10185000484503D1CD6822F440722A434D6922F0F5
:1018600080022A43026098428A68C2620A688262E1
:1018700007D0A04205D0604503D0404501D048457F
:1018800001D109690163012141610169C90703D0DF
:10189000016921F001010161BDE8F087000001400C
:1018A0000004004000080040000C0040000401401B
:1018B000004001400044014000480140FEE70907A4
:1018C00000284FEA116104DB00F1E02080F80014E9
:1018D000704700F00F0000F1E02080F8141D704701
:1018E00002E008C8121F08C1002AFAD170477047E9
:1018F000002001E001C1121F002AFBD17047704790
:10190000002070471FB500240094019402940394B2
:10191000FEF74AFF01208DF80C001F218DF80810FA
:1019200087228DF809208DF80D008DF8000068469B
:101930008DF80A408DF80E408DF8014001948DF825
:101940000B408DF80F40FEF701FF0420FEF73AFF31
:10195000FEF788FEFFF768FEFFF700FE00F014F8C0
:10196000FFF7DAFD00F022F8FEE710B5EFF305818E
:1019700011B16FF0050404E04FF0000408B100F06D
:1019800001FE204610BD0000EFF3058010B16FF09E
:10199000050070470449086810B14FF0FF307047E8
:1019A00001220A60002070477800002010B5EFF394
:1019B000058010B16FF0050010BD084801680129CD
:1019C00002D04FF0FF3010BD054A002182F8141DEF
:1019D0000221016000F03EFE002010BD78000020D2
:1019E0000BE000E02DE9FF414FEA01034FF0000555
:1019F000EFF30581039561BB58B34FF080064FF0BC
:101A000018014FF000044AB3176807B13C469769C4
:101A10001FB139467F1E382F02D21779FF0703D036
:101A2000002004B0BDE8F081576907B1BE08D2F8C4
:101A300008C0BCF1000F0DD0D568602D18D3126915
:101A40003AB137B18DE806103246214601F0B3F9BC
:101A500003900DE0D7685FB912694AB903AACDE9CE
:101A60000012B2B2214601F079F9012800D00395A5
:101A70000398D6E72DE9F041134C0F460546E6687A
:101A80002068001D00F048FC681C07D137B12168B0
:101A9000BDE8F0410D48091D00F090BC20683544B8
:101AA000B5424560216805D2206C091DBDE8F041B2
:101AB00000F06CBCE06B091D00F068FCA06A854278
:101AC00000D2A562BDE8F08120000020E4050020DE
:101AD0002DE9F041054600F07DFC2D4C2D4FA0680E
:101AE000401CA060206810B1606930B32BE0256015
:101AF000A068012827D1002606EB860007EB8000AE
:101B000000F036FC761C382EF6D3234800F030FC6B
:101B10002148143000F02CFC1F48283000F028FC2D
:101B20001D483C3000F024FC1B48503000F020FCE5
:101B30001948E0631430206405E0E86A2168C96A46
:101B4000814200D82560606A401C60626864E86A6F
:101B50002169884200D9206100EB8000291D07EB34
:101B6000800000F02BFC00F055FC606900280CD0D0
:101B70002068E96AC06A884207D208494FF080505D
:101B80000860BFF34F8FBFF36F8FBDE8F081000097
:101B900020000020340100209405002004ED00E026
:101BA00038B500F017FC104C2068C8B90F4800F099
:101BB000DFFB0E48143000F0DBFB0C490020E16035
:101BC00014312161A1F582730090A1F1B4021021BA
:101BD0000A2000F05BFE206010B105A100F09CFC23
:101BE000BDE8384000F016BC64000020E806002084
:101BF000546D72510000000030B4026C0B46002A94
:101C00000BD0D0E902411144C160A14201D3016867
:101C1000C160184630BCFEF7BDBB30BC70472DE933
:101C2000F041856B1746026C0446002682B1C7B1AD
:101C3000E068FEF7AFFBE168206C2268091AE160FA
:101C4000914202D2A168081AE060022F16D017E074
:101C50002068A8B9A06801F051F906460020A060EC
:101C60000EE06068FEF796FBD4E90101226C104497
:101C70006060884204D32068606001E005B16D1E99
:101C80006D1CA5633046BDE8F08110B5044690F8A0
:101C90005D0058B101280CD002280FD0502080F3ED
:101CA0001188BFF34F8FBFF36F8FFEE7206B00F0FB
:101CB000C5FB2046BDE8104000F0C0BB10BD0000D1
:101CC00011484FF4002110B5420706D00E49C01D3F
:101CD00020F00700411AC1F500210C4C00230144FB
:101CE0000839A4F1180221F00701C4E900030C1A15
:101CF00011604B600B60C0E9001494604FF000412C
:101D00005460516110BD00000000002494000020C8
:101D1000144E4FF08058144CDFF85090A6F29C47B8
:101D200012E000BF00F056FBF068C568281D00F007
:101D3000F3FAA068401EA0606068401E606000F07A
:101D400069FB2846FFF7A1FF60680028EAD13868E0
:101D50000128F9D9C9F80080BFF34F8FBFF36F8F07
:101D6000F2E70000D00500202000002004ED00E094
:101D700070B51D46049C51B1C4F80020C4E90F01A0
:101D80000121204600F0B6FD84F84C5070BD24605F
:101D9000F4E72DE9F05F88469A4691001546DDE9A3
:101DA0000B940A9EA5228346206BFEF705FB206B51
:101DB0006FF0030101EB8501084420F00707780765
:101DC00007D0502080F31188BFF34F8FBFF36F8F80
:101DD000FEE7B8F1000F4FF000050ED000202218EA
:101DE00018F8001082F8341018F8001011B1401CD7
:101DF0001028F4D384F8435001E084F83450382E8E
:101E000000D33726E662201DC4E9136500F0BBFA53
:101E100004F1180000F0B7FA6565C6F13800A56551
:101E2000A06184F85C505246246159463846646289
:101E300000F05AFAB9F1000F206001D0C9F8004053
:101E4000BDE8F09F30B5114900E011460A688242B2
:101E5000FBD34B685C18844203D144680846234492
:101E60004B6043681D18954209D1084C183C246802
:101E7000A24209D052681A4442600A68126802609D
:101E8000814200D0086030BD0460F9E79400002072
:101E900070B50D4D914241604FF00004006106D8CD
:101EA0008169D21A8A4206D2011D286907E09A4246
:101EB00003D2994201D3012403E0011DE86800F038
:101EC00065FA204670BD00006400002010B504468D
:101ED00000F080FAA06B28B15FF0000400F09AFADD
:101EE000204610BD0124F9E730B53C4D89B06BE0C8
:101EF0000498002806DA059ADDE90601904704985F
:101F0000002861DB069C606910B1201D00F004FA16
:101F100003A800F0D5F8024604980A2854D2DFE856
:101F200000F00505052D304705052D3094F82800F3
:101F300040F0010084F82800A06905990B4601448F
:101F40002046FFF7A5FF50B3216A2046884794F842
:101F50002800400738D50020009005980023A1698B
:101F600042181946204601F0D1F8C0B9502080F33C
:101F70001188BFF34F8FBFF36F8FFEE794F82800EF
:101F80001EE094F8280040F0010084F8280005982D
:101F9000A06128B1811813462046FFF779FF13E0AE
:101FA000502080F31188BFF34F8FBFF36F8FFEE790
:101FB00094F82800810703D4204600F03FFA03E09C
:101FC00020F0010084F828002868002204A900F00D
:101FD000EBFD00288CD109B030BD0000640000206A
:101FE0002DE9FC410F46054600F07AFB01A800F000
:101FF00067F80446019818B100F0F6FFBDE8FC81CF
:10200000254EAFB130690068D0B300273068291B76
:102010003A4600F095FA00F0E7FF0028EED11F499C
:102020004FF080500860BFF34F8FBFF36F8FE5E72D
:10203000A542EBD800F0D8FFF0682746C068C46816
:10204000201D00F069F994F82800410719D5A0690E
:102050002B463A4641192046FFF71AFFA8B1002047
:102060002A46034601460090204601F04FF860B929
:10207000502080F31188BFF34F8FBFF36F8FFEE7BF
:1020800007E020F0010084F82800216A20468847F4
:10209000B4E70127BAE700006400002004ED00E087
:1020A0000648C16B096829B1C16BC968C96849682C
:1020B000816270474FF0FF31FAE7000020000020F6
:1020C00070B5054600F0B0FE064E0446B068844286
:1020D00003D200F009F8012000E00020286020462B
:1020E000B46070BD64000020F8B5194D20E0C068F0
:1020F000C4680668201D00F00FF9216A2046884751
:1021000094F82800400713D5A0693044B04206D99E
:102110002461211D6060E86800F038F908E00020C3
:102120003246034601460090204600F0EFFF38B1EA
:10213000E86801680029DAD12969C5E90310F8BD0A
:10214000502080F31188BFF34F8FBFF36F8FFEE7EE
:102150006400002008484068401C4FF0500080F3A5
:10216000118804D0BFF34F8FBFF36F8FFEE7BFF32B
:102170004F8FBFF36F8FFEE79C000020074CE06895
:10218000016841B1C0680021D0F80000FFF728FFC6
:10219000FFF7AAFEF3E701210020F7E76400002023
:1021A0002DE9F041044600F015F994F9455004F189
:1021B000240609E0606A48B1304600F0DDFE08B14F
:1021C00000F00EFA6D1E6DB2002DF3DC4FF0FF36FD
:1021D00084F8456000F01EF900F0FCF894F94450D2
:1021E00004F1100709E0206948B1384600F0C4FE48
:1021F00008B100F0F5F96D1E6DB2002DF3DC84F826
:102200004460BDE8F04100F005B900002DE9F0415F
:102210000027044600F064FA324E306808B9FFF730
:102220004FFD706904424ED1C4B3083460070ED02C
:1022300004F00700C0F108000444600707D05020F4
:1022400080F31188BFF34F8FBFF36F8FFEE72CB37E
:102250007068844237D82348183001460D6801E081
:1022600028460D466968A14202D229680029F7D1A3
:1022700031688D4227D0076829680160083768688F
:10228000011B10290FD92819420708D0502080F3CC
:102290001188BFF34F8FBFF36F8FFEE713E04160EC
:1022A0006C60FFF7CFFD69687068401A7060B268B3
:1022B000904200D2B060002072691143C5E900016C
:1022C000F068401CF06000F08FFE780707D05020C7
:1022D00080F31188BFF34F8FBFF36F8FFEE738464F
:1022E000BDE8F0817C00002070B5041F094E231F5B
:1022F0004FF0807521F0010125601C1F1960A0F1CD
:1023000020010B1F266044380A606FF002051D6033
:1023100070BD000055210008D0E9013201699A60C2
:10232000D0E901235A604A68824201D182684A603A
:10233000002202610868401E0860086870470000BB
:1023400010B5044C8023046004F160000860136041
:1023500010BD00001007002010B5044C4FF480732E
:10236000046004F160000860136010BD7009002073
:102370004FF0FF3300F108010022C0E901130260B1
:10238000C1600161704700210161704730B50B6881
:102390005A1C02D000F1080202E0026904E0224661
:1023A000546825689D42FAD953684B6099608A60E9
:1023B000516008610168491C016030BD42684A6093
:1023C00093688B6093685960916008610168491C4B
:1023D00001607047502080F31188BFF34F8FBFF327
:1023E0006F8F0A494868401C486001280CD1084892
:1023F000006810F0FF0F07D0502080F31188BFF362
:102400004F8FBFF36F8FFEE7704700009C000020E6
:1024100004ED00E00849486828B1401E486001D139
:1024200080F311887047502080F31188BFF34F8FDD
:10243000BFF36F8FFEE700009C00002070B50028FE
:102440002AD0164DA0F1080461686869014207D1DD
:10245000502080F31188BFF34F8FBFF36F8FFEE7DB
:1024600022683AB1502080F31188BFF34F8FBFF339
:102470006F8FFEE78143616000F032F96068696840
:10248000084468602046FFF7DDFC2869401C28618D
:10249000BDE8704000F0A8BD70BD00007C000020C9
:1024A0004FF0E020002101614FF47A72816107232F
:1024B00003490968B1FBF2F1491E416103617047AC
:1024C0001800002010B5FDF74FFF114910280ED35A
:1024D00000F1E0200A7890F8F003904207D25020F3
:1024E00080F31188BFF34F8FBFF36F8FFEE709486A
:1024F0008968006800F4E060884207D9502080F3C2
:102500001188BFF34F8FBFF36F8FFEE710BD000040
:102510009C0000200CED00E0084B5FF0000210B5BD
:1025200053F832401CB1521C082AF9D310BD03EBFA
:10253000C20443F83210606010BD0000F4000020B7
:1025400070B515460E460446FFF744FF94F9441053
:102550000020491C01D184F8440094F94510491C1D
:1025600001D184F84500FFF755FFA06B28B904F1AD
:1025700024002A46314600F051F82046BDE870405C
:10258000FFF70EBE020010B514D00F48006B38B133
:10259000502080F31188BFF34F8FBFF36F8FFEE79A
:1025A00000F09EF800211046FFF764FA00F01CFDD1
:1025B000002807D105494FF080500860BFF34F8FC6
:1025C000BFF36F8F10BD00002000002004ED00E07D
:1025D00002490A6A0260C968416070472000002011
:1025E00001490120C86170472000002010B50C4649
:1025F00050B1094909681831FFF7C8FE2046BDE807
:1026000010400121FFF736BA502080F31188BFF344
:102610004F8FBFF36F8FFEE72000002070B5144688
:102620000D4668B10A4909681831FFF7C7FE0CB1B9
:102630004FF0FF3521462846BDE87040FFF71ABA33
:10264000502080F31188BFF34F8FBFF36F8FFEE7E9
:102650002000002030B587B0002405AA04A9039407
:1026600003A80494FFF76CFEDDE903010094002346
:10267000CDE90110184816A1059A00F09CFB174DF2
:102680000028E86221D000F011FD012809D0401C8B
:102690001BD1502080F31188BFF34F8FBFF36F8F92
:1026A000FEE7502080F31188BFF34F8FBFF36F8F89
:1026B00001214FF0FF30A8626961EC60FFF71FF95C
:1026C00007B0BDE8304000F051B807B030BD0000A1
:1026D00049444C4500000000111D00082000002066
:1026E0000248016B491C0163704700002000002074
:1026F00010B51C4C206B10B10120E06110BD002012
:10270000E061FFF7FDF8A063616B884204D9421ACB
:1027100021684B6D1A444A6560631349206901E0E2
:10272000B8B1401E00EB800251F82220002AF7D0F9
:1027300000EB800201EB820101F108034A68526854
:102740004A609A4201D152684A60D1682160206192
:1027500010BD502080F31188BFF34F8FBFF36F8FF0
:10276000FEE70000200000203401002037481CB59F
:10277000374902688A4207D1502080F31188BFF39D
:102780004F8FBFF36F8FFEE731490068491E8842C3
:1027900007D1502080F31188BFF34F8FBFF36F8FA5
:1027A000FEE72C49FF200A780192087008788DF81E
:1027B00000009DF800209DF8000002F0F002824227
:1027C00007D0502080F31188BFF34F8FBFF36F8F76
:1027D000FEE79DF8002007201F4C02F050022270F7
:1027E000A06005E09DF8002052008DF80020401EFA
:1027F0009DF800201206F5D40328A06007D05020D1
:1028000080F31188BFF34F8FBFF36F8FFEE74FF454
:102810004070A060019808700C482030016841F4B5
:1028200070010160016841F070410160FFF738FEFE
:1028300000206060FDF760FD0848016841F04041FC
:102840000160FDF745FD00201CBD000000ED00E02B
:1028500071C20F4100E400E09C00002034EF00E072
:10286000502010B580F31188BFF34F8FBFF36F8FE7
:1028700000F0E0FA18B104494FF0805008600020E1
:1028800080F3118810BD000004ED00E0F8B5069D4E
:1028900018B153B1CAB181B120E0502080F3118842
:1028A000BFF34F8FBFF36F8FFEE7502080F3118887
:1028B000BFF34F8FBFF36F8FFEE7502080F3118877
:1028C000BFF34F8FBFF36F8FFEE739B1502080F316
:1028D0001188BFF34F8FBFF36F8FFEE750241C4664
:1028E000012683F8466000932B46FFF741FA204605
:1028F000F8BD00002DE9F04704008A4629D0FFF713
:1029000069FD21680025D4E90F23D4F840C004F103
:10291000100810460E46401E4FF0FF3902FB03120E
:1029200000FB0C10BAF1000FA563666084F84490B8
:1029300084F84590C4E9022013D04046FFF718FD03
:1029400004F12400FFF714FDFFF764FD0120BDE84A
:10295000F087502080F31188BFF34F8FBFF36F8F44
:10296000FEE720690028EFD0404600F005FB002874
:10297000EAD004494FF080500860BFF34F8FBFF397
:102980006F8FE1E704ED00E02DE9FF4704001D46ED
:1029900082B08A464FF0000803D0BAF1000F08D089
:1029A00011E0502080F31188BFF34F8FBFF36F8F7A
:1029B000FEE7206C38B1502080F31188BFF34F8FB1
:1029C000BFF36F8FFEE7022D0AD1E06B012807D01D
:1029D000502080F31188BFF34F8FBFF36F8FFEE756
:1029E00000F014FA3F4F4FF080564FF0000948B9FD
:1029F000049838B1502080F31188BFF34F8FBFF394
:102A00006F8FFEE7FFF7E6FCA06BE16B884207D310
:102A1000022D05D00498D0B1B8F1000F1AD01EE0F5
:102A20002A4651462046FFF7FAF8616A19B104F1C7
:102A3000240000F0A1FA20B13E60BFF34F8FBFF336
:102A40006F8FFFF7E7FC012006B0BDE8F087FFF7C6
:102A5000E1FC22E06846FFF7BBFD4FF00108FFF7FD
:102A6000D9FCFFF73DFEFFF7B5FC94F94400401C8C
:102A700001D184F8449094F94500401C01D184F8B8
:102A80004590FFF7C7FC04A9684600F02BF930B168
:102A90002046FFF785FB00F0A7FA0020D4E7FFF7F8
:102AA00099FCA06BE16B884213D1FFF7B3FC04994A
:102AB00004F11000FFF79AFD2046FFF771FB00F0CC
:102AC00093FA00289ED13E60BFF34F8FBFF36F8F04
:102AD00098E7FFF79FFC2046FFF762FB00F084FABF
:102AE00090E7000004ED00E02DE9F04704001F46E8
:102AF0009046894603D0B9F1000F08D011E050206C
:102B000080F31188BFF34F8FBFF36F8FFEE7206C08
:102B100038B1502080F31188BFF34F8FBFF36F8F10
:102B2000FEE7022F0AD1E06B012807D0502080F386
:102B30001188BFF34F8FBFF36F8FFEE7FFF7C2FC23
:102B40005020EFF3118680F31188BFF34F8FBFF34E
:102B50006F8FA06BE16B884206D3022F04D0002058
:102B600086F31188BDE8F08794F94550A06B3A468A
:102B700049462046FFF753F8681C04D06D1C84F8C2
:102B800045500120ECE7606A0028FAD004F12400E7
:102B900000F0F2F90028F4D0B8F1000FF1D00121D3
:102BA000C8F80010EDE700002DE9F74704008A4659
:102BB00083B04FF0000603D0BAF1000F08D011E047
:102BC000502080F31188BFF34F8FBFF36F8FFEE764
:102BD000206C38B1502080F31188BFF34F8FBFF3C2
:102BE0006F8FFEE700F012F9DFF8F4804FF08057A6
:102BF0004FF0000948B9059838B1502080F311888A
:102C0000BFF34F8FBFF36F8FFEE7FFF7E3FBA56BBB
:102C1000C5B151462046FEF7EFFF6D1EA563206942
:102C200050B104F1100000F0A7F928B1C8F8007005
:102C3000BFF34F8FBFF36F8FFFF7ECFB012006B0A0
:102C4000BDE8F087059808B11EB106E0FFF7E2FB8A
:102C500027E06846FFF7BCFC0126FFF7DBFBFFF728
:102C60003FFDFFF7B7FB94F94400401C01D184F805
:102C7000449094F94500401C01D184F84590FFF739
:102C8000C9FB05A9684600F02DF8002820460AD0A7
:102C9000FFF786FA00F0A8F92046FFF717F9002899
:102CA000B3D00020CBE7FFF711F990B1059904F1FB
:102CB0002400FFF79BFC2046FFF772FA00F094F91E
:102CC0000028A2D1C8F80070BFF34F8FBFF36F8FF9
:102CD0009BE72046FFF764FA00F086F995E70000CD
:102CE00004ED00E02DE9F04105000C4612D0CCB116
:102CF000FFF770FB184E2068F268471C6B68A2EB68
:102D0000030117D02F68366AB74215D0934213D803
:102D100001251CE0502080F31188BFF34F8FBFF3D3
:102D20006F8FFEE7502080F31188BFF34F8FBFF302
:102D30006F8FFEE700250AE0884205D9401A20601F
:102D40002846FFF745FCF5E7002020600125FFF746
:102D500061FB2846BDE8F081200000202DE9FF5FDF
:102D6000994616468A4683469000DDE90E87FFF7AE
:102D70004DFA05001CD06020FFF748FA040014D07B
:102D80000020256384F85D004B46CDE90087CDE93E
:102D90000240324651465846FEF7FBFF2046FEF7FA
:102DA00097FE012004B0BDE8F09F2846FFF746FBE0
:102DB0004FF0FF30F6E7F0B585B0DDE90B740A9D02
:102DC000A7B1DCB160262763022684F85D60002786
:102DD00003970DF1100C0095CDE901C4FEF7D9FF62
:102DE0002046FEF775FE049805B0F0BD502080F334
:102DF0001188BFF34F8FBFF36F8FFEE7502080F332
:102E00001188BFF34F8FBFF36F8FFEE7054841690D
:102E100019B1006B18B100207047012070470220E3
:102E200070470000200000200148C0687047000083
:102E3000200000202DE9F0412E4C206B002728B106
:102E4000A069401CA0613846BDE8F081E668761CA8
:102E5000E66013D1E06B006838B1502080F3118830
:102E6000BFF34F8FBFF36F8FFEE7E06B216CE16321
:102E70002064206A401C2062FFF712F9DFF8788096
:102E8000A06A864209D3E06B0068A0B1E06BC0681D
:102E9000C5686868864211D2A0622068C06A00EBEB
:102EA000800158F82100012800D90127E069002895
:102EB000C9D00127C7E74FF0FF30EDE7281DFFF726
:102EC0002BFAA86A18B105F11800FFF725FAE86A8D
:102ED0002169884200D9206100EB800108EB810064
:102EE000291DFFF76BFA2068E96AC06A8142CAD3DC
:102EF0000127C8E7200000203401002070B50446F7
:102F00004FF0000190B31A4D2868844207D050203A
:102F100080F31188BFF34F8FBFF36F8FFEE7206DF3
:102F200038B1E36C401EE26A20659A421ED040B17F
:102F30001CE0502080F31188BFF34F8FBFF36F8FD9
:102F4000FEE7201DFFF7E8F9E06CC0F13801A16150
:102F5000E0622969884200D9286100EB80000549B8
:102F600001EB8000211DFFF729FA0121084670BD01
:102F7000200000203401002070B5C068C46854B13E
:102F800004F118000646FFF7C7F9144D286B50B13D
:102F90001348314615E0502080F31188BFF34F8F5E
:102FA000BFF36F8FFEE7201DFFF7B6F9E06A2969CE
:102FB000884200D9286100EB80000A4901EB8000BB
:102FC000211DFFF7FBF9E06A2968C96A884203D925
:102FD0000121E961084670BD002070BD200000207D
:102FE000BC050020340100202DE9F0472C4D286B52
:102FF0000024274638B1FFF7EDF9286B401E2863FF
:10300000286B40B147E0502080F31188BFF34F8F09
:10301000BFF36F8FFEE7234E0120A968D9B3A6F551
:10302000916980463068E0B1F068C46804F1180026
:10303000FFF772F9201DFFF76FF9E06A29698842EE
:1030400000D9286100EB800109EB8100211DFFF709
:10305000B5F9E06A2968C96A8842E3D3C5F81C80DB
:10306000E0E70CB1FFF71CF8AC694CB14FEA080679
:10307000FFF7E0FE00B1EE61641EF9D10020A86107
:10308000E86940B1084901274FF080500860BFF35C
:103090004F8FBFF36F8FFFF7BDF93846BDE8F0875C
:1030A00020000020BC05002004ED00E010B586B033
:1030B000FEF776FD114C2068B8B10020039005AAF8
:1030C000049004A903A8FFF747F9DDE903210220D2
:1030D00000238DE807000C4809A1059AFFF76BFE55
:1030E000606010B106B0012010BD502080F311883F
:1030F000BFF34F8FBFF36F8FFEE700006400002027
:10310000546D7220537663007D2100082DE9FF4144
:103110001E46134602004FF000000A9D16D0144CC4
:103120002768002F0FD006290292CDE9001317DA85
:10313000FFF76CFE02284FF000030FD0002220683A
:103140006946FFF721FC04B0BDE8F081502080F310
:103150001188BFF34F8FBFF36F8FFEE72A46EEE76C
:103160000023324669463846FFF7BEFCEBE7000015
:1031700064000020F831000800000000000000009A
:103180000000000000000000000200001800000025
:103190000000000000000000F03100080000000006
:1031A000000000000000000000000000000200001D
:1031B00008000000000000000000000004320008C9
:1031C00000000000000000000000000000000000FF
:1031D00000020000080000000000000000000000E5
:1031E00000000000010203040102030406070809AD
:1031F0006C65645461736B0064656661756C7454CE
:1032000061736B00756172745461736B0000000030
:103210004032000800000020A8000000E01800086C
:10322000E8320008A800002028110000F01800086B
:10323000E83200080000002400000800F018000830
:10324000000000000000000000000000010000007D
:1032500010000000000000000090D0030090D00398
:10326000000000000000000000000000000000005E
:10327000000000000000000000000000000000004E
:10328000000000000000000000000000000000003E
:10329000000000000000000000000000000000002E
:1032A000000000000000000000000000000000001E
:1032B000000000000000000000000000000000000E
:1032C00000000000000000000000000000000000FE
:1032D00000000000000000000000000000000000EE
:0832E000AAAAAAAA000000003E
:040000050800029954
:00000001FF
